:020000040800F2
:100000000000052085420008B51D0008B71D000846
:10001000B91D0008BB1D0008BD1D00080000000040
:10002000000000000000000000000000BF1D0008EC
:10003000C11D000800000000C31D0008C51D000808
:10004000D5420008D5420008D5420008D542000834
:10005000D5420008D5420008D5420008D542000824
:10006000D5420008D5420008D5420008D542000814
:10007000D5420008D5420008D5420008D542000804
:10008000CD1D0008D5420008DD1D0008D54200083E
:10009000D5420008D5420008D5420008D5420008E4
:1000A000ED1D0008FD1D00080D1E00081D1E0008A6
:1000B0002D1E0008D5420008D5420008D542000890
:1000C000D5420008D5420008D5420008D5420008B4
:1000D000D5420008D5420008D5420008D5420008A4
:1000E000D5420008D5420008D5420008D542000894
:1000F000D5420008D5420008D5420008D542000884
:10010000D5420008D5420008D5420008D542000873
:10011000D5420008D54200083D1E0008D54200081F
:100120004D1E0008D5420008D5420008D5420008FF
:10013000D5420008D5420008D5420008D542000843
:10014000D5420008D5420008D5420008D542000833
:10015000D5420008D5420008D5420008D542000823
:10016000D5420008D5420008D5420008D542000813
:10017000D5420008D5420008000000000000000041
:10018000D5420008D5420008D5420008D5420008F3
:10019000D5420008D542000800000000D542000802
:1001A000D5420008D5420008000000000000000011
:1001B000D54200080000000000000000D542000801
:1001C000D5420008D5420008D5420008D5420008B3
:0801D000D5420008D5420008E9
:100200000348044B834202D0034B03B118477047A5
:1002100084000020840000200000000005480649FA
:10022000091A891001EBD171491002D0034B03B1B7
:100230001847704784000020840000200000000060
:1002400010B5064C237843B9FFF7DAFF044B13B11E
:100250000448AFF300800123237010BD8400002008
:1002600000000000D842000808B5044B1BB1044947
:100270000448AFF30080BDE80840CFE7000000006D
:1002800088000020D84200080A22002100F094BB18
:100290000A23002200F082BB70B50D4E0D4D761B77
:1002A000B61006D00024013455F8043B9847A64206
:1002B000F9D1094E094D761B04F00EF8B61006D0A0
:1002C0000024013455F8043B9847A642F9D170BD8B
:1002D00058440008584400085C440008584400088A
:1002E000F0B4860743D0541E002A3ED0CAB203465B
:1002F00002E014F1FF3438D303F8012B9D07F8D145
:10030000032C2BD9CDB245EA05250F2C45EA05452E
:1003100016D9A4F110073F0903F1200606EB0716D2
:1003200003F1100242E9045542E902551032B2428B
:10033000F8D104F00F040137032C03EB07130DD998
:100340001E462246043A032A46F8045BFAD8221FC6
:1003500022F003020432134404F003042CB1C9B2A6
:100360001C4403F8011B9C42FBD1F0BC70471446AF
:100370000346C5E700000000000000000000000088
:1003800090F800F06DE9024520F007016FF0000CD5
:1003900010F0070491F820F040F049804FF000047D
:1003A0006FF00700D1E9002391F840F000F1080058
:1003B00082FA4CF2A4FA8CF283FA4CF3A2FA8CF390
:1003C0004BBBD1E9022382FA4CF200F10800A4FAF7
:1003D0008CF283FA4CF3A2FA8CF3E3B9D1E904234B
:1003E00082FA4CF200F10800A4FA8CF283FA4CF382
:1003F000A2FA8CF37BB9D1E9062301F1200182FA3C
:100400004CF200F10800A4FA8CF283FA4CF3A2FA41
:100410008CF3002BC6D0002A04BF04301A4612BA4F
:10042000B2FA82F2FDE8024500EBD2007047D1E952
:10043000002304F00305C4F100004FEAC50514F0E1
:10044000040F91F840F00CFA05F562EA05021CBFB2
:1004500063EA050362464FF00004A9E72DE9F04F77
:100460000125064688469146ADF2244D1C462A4693
:1004700000214FF0FF3053189C4209EB00070DD9C3
:10048000BF5C19F803C0BC4580F0C4801946012246
:100490001D1A53189C4209EB0007F1D8012302935F
:1004A0001A4600214FF0FF37824653189C4209EB51
:1004B000070C0FD91CF802C019F803E0E64540F21A
:1004C000AF80DA1B02921946012253189C4209EBB5
:1004D000070CEFD8504607F1010B013083453CBFB4
:1004E0000295834607AB0DF21C4243F8044F93423A
:1004F000FBD1651E002C00F00F8108A809F1FF3226
:100500002B46019012F8011F40F8213013F1FF3300
:10051000F8D2029B5A4609EB0301484600F058FA0C
:10052000002840F091800BF1FF32029B07924A4471
:100530000592E31A72198246074603920493039BBD
:10054000019ADB5D52F82330F3B1BAF1000F04D009
:10055000029A9342049A38BF13461F444FF0000A90
:10056000A8EB0403BB42EAD206EB080044F40061A6
:1005700000F0D4FA8044A8EB0403BB42DFD2002091
:100580000DF2244DBDE8F08FD3455B4638BF53468E
:100590009D4213D9DA1919F8030016F802C08445F0
:1005A000324409EB030106D030E011F801CF12F814
:1005B000010F84452AD101339D42F6D8079BD345CC
:1005C000194640F29E803B44059AF05C12789042B6
:1005D000334440F096800AF1FF320598069596461E
:1005E00006E010F801CD13F8015DAC4503D11146CA
:1005F0004A1E7245F5D10AF1010A8A45069D00F2AC
:100600008680029BDDF810A01F44A9E7CBF1010210
:100610001744A2E70BD0012508462A4629442AE7B9
:100620000BD001230F4602931A4619443DE7AA4214
:1006300012BF0132194601221DE70298824212BF01
:1006400001321946012230E7A4EB0B035B4538BFAA
:100650005B460BF1FF320133049309EB0203059370
:1006600009EB0B0303924FF0000A029306EB0A001A
:10067000019A435D52F823306BBB5D4515D90BEBF6
:100680000A02029BB15C1B789942324418BF5B4658
:1006900032D102995B4605E011F801CF12F8017FD3
:1006A000BC4529D101339D42F6D8039B5A1C3FF427
:1006B00067AF5344059FF15C3A789142334409D1C6
:1006C0003A464A453FF45CAF12F8017D13F8011D2C
:1006D0008F42F6D0049B9A44A8EB04039A45C5D9EF
:1006E00006EB080044F4006100F018FA8044A8EB1F
:1006F00004039A45BAD942E7CBF1010292449A44E5
:10070000EAE759460AF1010A8A457FF67AAFF019FD
:100710000DF2244DBDE8F08F08AB0193F9E600BF60
:100720002DE9F0410E46097890B00446E1B17278A7
:1007300092B3B578E5B13068F37800BA9BBB120488
:10074000237842EA016242EA0522002B39D01B02DB
:10075000601C617800E020460B431B02441C81B3FF
:100760009A424178F7D1841E204610B0BDE8F0814E
:10077000037842EA014223B30130617800E0204669
:1007800041EA0343441CE1B19A424178F7D1441E47
:10079000204610B0BDE8F08100F04CF90446204638
:1007A00010B0BDE8F0813379002B47D03046FFF719
:1007B000E7FD074640F40071204600F0AFF987429C
:1007C00004D90024204610B0BDE8F081FE2F53D894
:1007D000A0EB07084022791C6846A044FFF780FD83
:1007E00077B1721ED519F8B212F8013F10A903F0C3
:1007F0003F030B44B11A0144AA4203F8401CF3D151
:10080000013C10AAE35D03F03F03134413F8403C9E
:100810001C44A04503D221E02C44A0451ED3E55D35
:1008200010AB05F03F051D443A463146204615F809
:10083000405C00F0CDF80028EED195E722781AB39D
:1008400010B909E0834207D042EA032314F8012FCC
:10085000002AF7D18342B4D1043C85E718F8073069
:1008600008EB0700002BACD04FF4006100F056F904
:100870008044A045C4D2A4E701463B462046324608
:10088000FFF7ECFD04466FE71346E3E72DE9F04F71
:100890008146414F084600E02846054615F8014BC1
:1008A0003E5D16F00806F7D12D2C53D02B2C0ABF35
:1008B00090F801B0A346851C1BB1102B4FD09E466B
:1008C00004E0BBF1300F54D00A239E46002E0CBF2B
:1008D0006FF000484FF000480027B8FBFEFC384698
:1008E0000EFB1C8A05E029D000FB0E40012715F8FD
:1008F00001BBABF13004092C05D9ABF14104192C33
:100900000BD8ABF13704A3420FDDB7F1FF3FEED0B8
:100910008445E8D24FF0FF37E9E7ABF16104192CC9
:1009200003D8ABF15704A342EFDC7B1C0BD006B11C
:1009300040420AB14FBB1160BDE8F08FA245D3DA47
:100940004FF0FF37D3E72223C9F80030FAB1691E10
:100950004046F0E7851C90F801B00126ACE7BBF1FA
:10096000300FACD1287800F0DF00582806D09E4622
:10097000ACE72B7803F0DF03582B0AD14FF0100EB1
:1009800095F801B073460235A0E78046DFE74046A0
:10099000D2E708239E4699E7F142000876E700BFB8
:1009A00010B4044C13460A46014620685DF8044B17
:1009B0006CE700BF0000002010B4044C13460A4648
:1009C000014620685DF8044B60E700BF000000208E
:1009D000032A70B414D940EA0105AD0704460B465A
:1009E00022D11D682668AE421946204603F1040351
:1009F00004F1040418D1043A032A20461946F0D819
:100A0000541E72B102780B789A4208BF641806D05F
:100A10000CE010F8012F11F8013F9A4206D1A142D3
:100A2000F7D1002070BC7047541EEBE7D01A70BCA1
:100A3000704700BFC9B200F00303002943D07BB167
:100A40000378002B67D099423CD0431C05E013F893
:100A5000012B002A5DD08A4234D09A071846F6D17D
:100A600070B4046841EA012646EA064686EA0405AF
:100A7000A5F10133A4F1013223EA050322EA0402BD
:100A8000134313F0803F0FD150F8044F84EA06055A
:100A9000A5F10132A4F1013322EA050223EA04039D
:100AA000134313F0803FEFD0037843B1994202D152
:100AB00006E08B4204D010F8013F002BF9D1184614
:100AC00070BC704770475BB10378002BFAD0431CB1
:100AD00003E002780133002AF4D099071846F8D1D0
:100AE0000268A2F1013323EA020313F0803F08D128
:100AF00050F8042FA2F1013323EA020313F0803FE0
:100B0000F6D00378002BDDD010F8013F002BFBD18D
:100B10007047104670471846704700BFC1B1037850
:100B2000C3B10144431C994216D010B41A785C1C1E
:100B300032B1A142234607D01A785C1C002AF8D1B2
:100B4000181A5DF8044B7047081A5DF8044B70479B
:100B50000846704718467047081A704781F00041F0
:100B600002E000BF83F0004330B54FEA41044FEA92
:100B7000430594EA050F08BF90EA020F1FBF54EA2D
:100B8000000C55EA020C7FEA645C7FEA655C00F0C9
:100B9000E2804FEA5454D4EB5555B8BF6D420CDD9A
:100BA0002C4480EA020281EA030382EA000083EA1D
:100BB000010180EA020281EA0303362D88BF30BDBD
:100BC00011F0004F4FEA01314FF4801C4CEA113113
:100BD00002D0404261EB410113F0004F4FEA033372
:100BE0004CEA133302D0524263EB430394EA050FFD
:100BF00000F0A780A4F10104D5F1200E0DDB02FA6C
:100C00000EFC22FA05F2801841F1000103FA0EF2FF
:100C1000801843FA05F359410EE0A5F120050EF1C5
:100C2000200E012A03FA0EFC28BF4CF0020C43FAF6
:100C300005F3C01851EBE37101F0004507D54FF003
:100C4000000EDCF1000C7EEB00006EEB0101B1F553
:100C5000801F1BD3B1F5001F0CD349085FEA300099
:100C60004FEA3C0C04F101044FEA445212F5800FA4
:100C700080F09A80BCF1004F08BF5FEA500C50F141
:100C8000000041EB045141EA050130BD5FEA4C0C24
:100C9000404141EB010111F4801FA4F10104E9D1AD
:100CA00091F0000F04BF01460020B1FA81F308BFA4
:100CB0002033A3F10B03B3F120020CDA0C3208DD70
:100CC00002F1140CC2F10C0201FA0CF021FA02F14B
:100CD0000CE002F11402D8BFC2F1200C01FA02F1BB
:100CE00020FA0CFCDCBF41EA0C019040E41AA2BFE0
:100CF00001EB0451294330BD6FEA04041F3C1CDAA8
:100D00000C340EDC04F11404C4F1200220FA04F0C7
:100D100001FA02F340EA030021FA04F345EA030171
:100D200030BDC4F10C04C4F1200220FA02F001FA33
:100D300004F340EA0300294630BD21FA04F02946B5
:100D400030BD94F0000F83F4801306BF81F480114E
:100D50000134013D4EE77FEA645C18BF7FEA655CC1
:100D600029D094EA050F08BF90EA020F05D054EA93
:100D7000000C04BF1946104630BD91EA030F1EBF98
:100D80000021002030BD5FEA545C05D1400049419C
:100D900028BF41F0004130BD14F580043CBF01F58F
:100DA000801130BD01F0004545F0FE4141F4700175
:100DB0004FF0000030BD7FEA645C1ABF1946104650
:100DC0007FEA655C1CBF0B46024650EA013406BF51
:100DD00052EA033591EA030F41F4002130BD00BF10
:100DE00090F0000F04BF0021704730B54FF48064CD
:100DF00004F132044FF000054FF0000150E700BF4E
:100E000090F0000F04BF0021704730B54FF48064AC
:100E100004F1320410F0004548BF40424FF0000199
:100E20003EE700BF42004FEAE2014FEA31014FEADC
:100E300002701FBF12F07F4393F07F4F81F060512B
:100E4000704732F07F4208BF704793F07F4F04BF76
:100E500041F40021704730B54FF4607401F0004553
:100E600021F000411CE700BF50EA010208BF7047B3
:100E700030B54FF000050AE050EA010208BF7047A4
:100E800030B511F0004502D5404261EB41014FF40D
:100E9000806404F132045FEA915C3FF4D8AE4FF015
:100EA00003025FEADC0C18BF03325FEADC0C18BFF8
:100EB000033202EBDC02C2F1200300FA03FC20FA49
:100EC00002F001FA03FE40EA0E0021FA02F1144496
:100ED000BDE600BF70B54FF0FF0C4CF4E06C1CEAAF
:100EE00011541DBF1CEA135594EA0C0F95EA0C0F20
:100EF00000F0DEF82C4481EA030621EA4C5123EA93
:100F00004C5350EA013518BF52EA033541F48011C1
:100F100043F4801338D0A0FB02CE4FF00005E1FB74
:100F200002E506F00042E0FB03E54FF00006E1FBBE
:100F300003569CF0000F18BF4EF0010EA4F1FF0401
:100F4000B6F5007F64F5407404D25FEA4E0E6D4141
:100F500046EB060642EAC62141EA55514FEAC52052
:100F600040EA5E504FEACE2EB4F1FD0C88BFBCF5CE
:100F7000E06F1ED8BEF1004F08BF5FEA500E50F17F
:100F8000000041EB045170BD06F0004646EA010145
:100F900040EA020081EA0301B4EB5C04C2BFD4EB77
:100FA0000C0541EA045170BD41F480114FF0000E70
:100FB000013C00F3AB8014F1360FDEBF002001F0DE
:100FC000004170BDC4F10004203C35DA0C341BDC58
:100FD00004F11404C4F1200500FA05F320FA04F02A
:100FE00001FA05F240EA020001F0004221F000415E
:100FF00010EBD37021FA04F642EB06015EEA430ED1
:1010000008BF20EAD37070BDC4F10C04C4F1200500
:1010100000FA04F320FA05F001FA04F240EA0200B3
:1010200001F0004110EBD37041F100015EEA430E84
:1010300008BF20EAD37070BDC4F1200500FA05F2A4
:101040004EEA020E20FA04F301FA05F243EA020323
:1010500021FA04F001F0004121FA04F220EA020032
:1010600000EBD3705EEA430E08BF20EAD37070BD78
:1010700094F0000F0FD101F00046400041EB010158
:1010800011F4801F08BF013CF7D041EA060195F03A
:10109000000F18BF704703F00046520043EB0303F4
:1010A00013F4801F08BF013DF7D043EA06037047E1
:1010B00094EA0C0F0CEA135518BF95EA0C0F0CD0EC
:1010C00050EA410618BF52EA4306D1D181EA030132
:1010D00001F000414FF0000070BD50EA410606BF2C
:1010E0001046194652EA430619D094EA0C0F02D171
:1010F00050EA013613D195EA0C0F05D152EA0336B6
:101100001CBF104619460AD181EA030101F00041D3
:1011100041F0FE4141F470014FF0000070BD41F01C
:10112000FE4141F4780170BD70B54FF0FF0C4CF4F6
:10113000E06C1CEA11541DBF1CEA135594EA0C0F15
:1011400095EA0C0F00F0A7F8A4EB050481EA030E62
:1011500052EA03354FEA013100F088804FEA033349
:101160004FF0805545EA131343EA12634FEA022217
:1011700045EA111545EA10654FEA00260EF00041D8
:101180009D4208BF964244F1FD0404F5407402D22A
:101190005B084FEA3202B61A65EB03055B084FEABB
:1011A00032024FF480104FF4002CB6EB020E75EBB8
:1011B000030E22BFB61A754640EA0C005B084FEAE0
:1011C0003202B6EB020E75EB030E22BFB61A75465D
:1011D00040EA5C005B084FEA3202B6EB020E75EBA8
:1011E000030E22BFB61A754640EA9C005B084FEA20
:1011F0003202B6EB020E75EB030E22BFB61A75462D
:1012000040EADC0055EA060E18D04FEA051545EA1B
:1012100016754FEA06164FEAC30343EA52734FEAC4
:10122000C2025FEA1C1CC0D111F4801F0BD141EA3D
:1012300000014FF000004FF0004CB6E711F4801FA2
:1012400004BF01430020B4F1FD0C88BFBCF5E06F82
:101250003FF6AFAEB5EB030C04BFB6EB020C5FEA92
:10126000500C50F1000041EB045170BD0EF0004EE7
:101270004EEA113114EB5C04C2BFD4EB0C0541EA19
:10128000045170BD41F480114FF0000E013C90E616
:1012900045EA060E8DE60CEA135594EA0C0F08BFDA
:1012A00095EA0C0F3FF43BAF94EA0C0F0AD150EAD9
:1012B00001347FF434AF95EA0C0F7FF425AF10466C
:1012C00019462CE795EA0C0F06D152EA03353FF494
:1012D000FDAE1046194622E750EA410618BF52EA11
:1012E00043067FF4C5AE50EA41047FF40DAF52EAE5
:1012F00043057FF4EBAE12E74A0011D212F500125B
:1013000011D20DD56FF47873B3EB62520ED44FEA5D
:10131000C12343F0004343EA505323FA02F07047DD
:101320004FF00000704750EA013002D14FF0FF301B
:1013300070474FF00000704753B94AB9002908BF01
:1013400000281CBF4FF0FF314FF0FF3000F072B9A2
:10135000ADF1080C6DE904CE00F006F8DDF804E00C
:10136000DDE9022304B070472DE9F047089E0446EA
:101370008846002B4BD18A42154667D9B2FA82F2D1
:101380004AB1C2F1200701FA02F320FA07F79540AB
:1013900047EA030894404FEA154E230CB8FBFEF7CA
:1013A0001FFA85FC0EFB178843EA084307FB0CF184
:1013B000994209D9EB1807F1FF3080F01B8199425F
:1013C00040F21881023F2B445B1AA4B2B3FBFEF03B
:1013D0000EFB103344EA034400FB0CFCA44509D97E
:1013E0002C1900F1FF3380F00781A44540F20481FD
:1013F00002382C4440EA0740A4EB0C0400271EB13D
:10140000D4400023C6E900433946BDE8F0878B424B
:1014100009D9002E00F0EB800027C6E9000138460C
:101420003946BDE8F087B3FA83F7002F47D18B42E6
:1014300002D3824200F2FA80841A61EB0303012096
:101440009846002EE0D0C6E90048DDE702B9FFDE8D
:10145000B2FA82F2002A40F08F80491B4FEA154E03
:101460001FFA85F80127B1FBFEFC230C0EFB1C11B3
:1014700043EA014308FB0CF1994207D9EB180CF140
:10148000FF3002D2994200F2CD808446591AA3B2AD
:10149000B1FBFEF00EFB101443EA044408FB00F815
:1014A000A04507D92C1900F1FF3302D2A04500F264
:1014B000B6801846A4EB080440EA0C409FE7C7F149
:1014C000200CBB4022FA0CFE4EEA030E01FA07F490
:1014D00020FA0CF521FA0CF34FEA1E482543B3FB22
:1014E000F8F92C0C08FB19331FFA8EFA44EA03436F
:1014F00009FB0AF49C4202FA07F200FA07F10BD941
:101500001EEB030309F1FF3080F087809C4240F21C
:101510008480A9F1020973441B1BADB2B3FBF8F040
:1015200008FB103345EA034400FB0AFAA24508D938
:101530001EEB040400F1FF336BD2A24569D90238D7
:10154000744440EA0940A0FB0289A4EB0A044C451C
:10155000C2464B4654D351D0002E69D0B1EB0A0598
:1015600064EB030404FA0CFCFD40FC404CEA050566
:10157000C6E90054002747E7C2F1200320FA03F729
:10158000954001FA02F021FA03F34FEA154E384371
:10159000010CB3FBFEF71FFA85F80EFB173341EA87
:1015A000034107FB08F38B4204FA02F407D96918D8
:1015B00007F1FF3C2FD28B422DD9023F2944CB1A91
:1015C00081B2B3FBFEF00EFB103341EA034100FB96
:1015D00008F38B4207D9691800F1FF3C17D28B4200
:1015E00015D902382944C91A40EA07473BE737466C
:1015F000304609E70746E7E61846FBE64145ABD229
:10160000B8EB020A69EB0E0201381346A4E7604604
:10161000E9E7184695E76746D1E781467CE7023857
:101620002C4447E7ACF1020C2B442FE7384608E77F
:101630003746E9E6704700BF10B588B00022039234
:1016400004920592069207920092184B196B41F092
:1016500004011963196B01F00401009100990192D2
:10166000196B41F001011963196B01F0010101913E
:1016700001990292196B41F0080119631B6B03F089
:1016800008030293029B0A4C4021204601F0A8FC6B
:10169000402303930123049302230593032306931A
:1016A00003A9204601F0B8FB08B010BD0038024085
:1016B0000000024010B582B000240094124B1A6B57
:1016C00042F400121A631A6B02F400120092009A9C
:1016D00001941A6B42F480021A631B6B03F48003BB
:1016E0000193019B22462146102001F097FE102015
:1016F00001F0C8FE22462146382001F08FFE382036
:1017000001F0C0FE02B010BD0038024008B5002054
:1017100002F05CFD012002F059FD022002F056FDAE
:10172000022002F08FFD322001F022FF022002F0A1
:1017300099FD322001F01CFF08BD000008B5FF2311
:101740004FF480620249034802F062FC002008BDA9
:10175000A0110020A415002030B583B005464FF439
:1017600080620F490F4800F0ADFD002100914FF459
:1017700080630D4A0D4801F053FF012001F0F8FE8F
:101780000B4C204602F096F80A4B1878400001F006
:10179000EFFE204602F0CCF8284603B030BD00BF73
:1017A000A000002048160020A0080020901600206D
:1017B0004C1700206A00002070B5C0B005460C46EA
:1017C000FEF7DEFDC6B200210091FB2201A8FEF764
:1017D00087FD731E01E0DEB2013B002B05DDEA5CF4
:1017E0000D2AF8D00A2AF7D1F5E70B492846FEF76B
:1017F00097FF10B1002040B070BD2046214604E0A4
:101800000B1A6A5C0DF8032001318E42F8DC684641
:10181000FEF73AFD80B2EEE7F443000808B5002277
:101820004021024801F0DCFB08BD00BF000002407F
:1018300072B6FEE700B585B00023009301930293D2
:1018400003931B4B1B7853BB1A4B00225A60194859
:10185000194B03604FF080738360002303610376AC
:1018600080F820304FF08052C2624FF0C062826236
:10187000C3600123C36180F83030436100F0F6FC9F
:1018800090B90A2300930123019300230293694630
:10189000084800F0BDFE48B905B05DF804FB054BF3
:1018A0004FF480325A60D2E7FFF7C2FFFFF7C0FF64
:1018B0006A000020481600200020014010B586B0C4
:1018C0000024029403940494059400940194FFF777
:1018D000B1FF144B1B78144843604FF08043036002
:1018E00084602F23C3600461846102F05DF998B9BC
:1018F00006A94FF4805341F8103D0B4802F0B8F9A7
:1019000060B920230093002301936946064802F042
:1019100029FA28B906B010BDFFF78AFFFFF788FF44
:10192000FFF786FF6A0000204C17002008B5FFF77C
:10193000C5FF002307E0214A128892B2204921F80E
:10194000132001339BB21F4A128892B29A42F2D8F6
:101950001C4B1B889BB207E01B4A128892B21849A5
:1019600021F8132001339BB2B3F5806FF4D3002329
:1019700008E0164A002122F81310154AFF21D1541D
:1019800001339BB2B3F5806FF3D30122402111489C
:1019900001F026FB4FF48060FFF7DEFE002308E035
:1019A0000A4A32F81320C2F347020949CA540133E4
:1019B0009BB2B3F5806FF3D3002008BD6600002012
:1019C000A008002068000020A0150020A000002032
:1019D000A01100200000024070B58EB004465E4B9E
:1019E00093E803000C908DF834105C4B0B935C4B28
:1019F00093E803000990ADF828105A4B93E80300D0
:101A00000790ADF82010584B0693584B93E803000D
:101A100004908DF81410564B93E8030002908DF853
:101A20000C10544B01930CA92046FEF779FE0028B8
:101A300000F0858004212046FFF7BEFE054618B160
:101A40004500ADB2013DADB2EBB24B4A1370FF237E
:101A500003224A494A4802F0DBFA01260BA9204634
:101A6000FEF75EFE58B103212046FFF7A5FE0546AE
:101A700000EB800253009BB2424A1380012609A961
:101A80002046FEF74DFE10B1FFF750FF002607A9D4
:101A90002046FEF745FE10B1FFF750FE002606A9CE
:101AA0002046FEF73DFE88B103212046FFF784FE65
:101AB0000546FFF7A5F926A3D3E90023FFF70AFAA5
:101AC000FFF71AFC80B2304B1880012604A920468B
:101AD000FEF726FE88B104212046FFF76DFE05467D
:101AE000FFF78EF91AA3D3E90023FFF7F3F9FFF705
:101AF00003FC80B2254B1880012602A92046FEF780
:101B00000FFE40B104212046FFF756FE0546C2B243
:101B10001F4B1A70012601A92046FEF701FE88B16D
:101B2000154B01221A70184B4FF49B721A80154BFB
:101B30004FF4FA721A80002528460EB070BD0025B9
:101B40002E468BE7002EF7D10025F5E7AFF3008096
:101B5000D418308D01D3384000440008696D7000FE
:101B60000844000810440008637572001844000817
:101B700020440008646566006A000020FC430008F9
:101B8000A41500206800002066000020A015002099
:101B90006400002010B50F4C002323703223FF2275
:101BA00021460D4802F0A1FA012001F0E1FC237862
:101BB000DBB2032B02D8074B187810BD2046FFF785
:101BC0000BFF002303E0034A0021D1540133FE2B15
:101BD000F9DDF0E7A0100020A415002008B5FFF7FC
:101BE000D9FF08BD00B583B00023009301930B48D3
:101BF0000B4B036001F0D0FC58B924230093002262
:101C000001926946054801F0E2FD20B903B05DF894
:101C100004FBFFF70DFEFFF70BFE00BF9016002040
:101C20000074004008B50A480A4B03604FF4614352
:101C3000436000238360C36003610C2242618361BF
:101C4000C36102F0B6F900B908BDFFF7F1FD00BFAE
:101C5000A41500200048004000B587B0002302937F
:101C6000039304930593009301931848184A026064
:101C70000122426083605F22C2600361436183612D
:101C800001F092FFC8B906A94FF4805341F8103D06
:101C90000E4801F0EDFF90B908210C4801F0AFFFAC
:101CA00078B920230093802301936946074802F006
:101CB00059F840B907B05DF804FBFFF7B9FDFFF72D
:101CC000B7FDFFF7B5FDFFF7B3FD00BF0417002018
:101CD0000000014000B595B03422002107A8FEF7AE
:101CE000FFFA002302930393049305930693009352
:101CF0001E4A116C41F080511164126C02F0805246
:101D00000092009A01931A4A116841F4404111600F
:101D1000126802F440420192019A022207920121C4
:101D20000A9110210B910D920E930F91C0231093E5
:101D300011921292139207A800F068FE88B90F233F
:101D4000029302230393002304934FF480520592DD
:101D50000693032102A800F083FD20B915B05DF8B9
:101D600004FBFFF765FDFFF763FD00BF003802408D
:101D70000070004008B501F0CFFBFFF7C7FCFFF78C
:101D8000A9FFFFF759FCFFF795FCFFF72BFFFFF7C3
:101D900049FFFFF761FFFFF791FDFFF74BFD0021C2
:101DA000034801F00BFCFFF7C1FDFFF717FFFCE74D
:101DB00090160020FEE7FEE7FEE7FEE7FEE770472D
:101DC0007047704708B501F0C1FB08BD08B502486F
:101DD00001F024FA08BD00BFE815002008B502484C
:101DE00000F02AFB08BD00BF4816002008B50248D5
:101DF00001F0B8FD08BD00BF0417002008B5024877
:101E000001F0B0FD08BD00BF0417002008B502486E
:101E100001F0A8FD08BD00BF0417002008B5024866
:101E200001F0A0FD08BD00BF0417002008B502485E
:101E300001F098FD08BD00BF4C17002008B502480E
:101E400001F08DFC08BD00BF9016002008B50248C7
:101E500001F0E4F908BD00BFA4160020034AD2F83F
:101E6000883043F47003C2F88830704700ED00E01A
:101E700082B0002100910B4B5A6C42F480425A64AC
:101E80005A6C02F480420092009A01911A6C42F05E
:101E900080521A641B6C03F080530193019B02B0C3
:101EA000704700BF0038024030B589B0002303936B
:101EB0000493059306930793026803F1804303F5A7
:101EC00090339A4201D009B030BD044600250195F7
:101ED00003F58C335A6C42F480725A645A6C02F4E3
:101EE00080720192019A02951A6B42F004021A6301
:101EF0001B6B03F004030293029B01230393032350
:101F0000049303A9144800F087FF1448144B03609E
:101F100045608560C5604FF4806303614FF40063E2
:101F200043614FF400538361C5614FF44033036252
:101F3000456201F0D7F858B9084BA3639C630022AF
:101F40001146122001F06AFA122001F09BFABAE75A
:101F5000FFF76EFCF0E700BF00080240A416002067
:101F60001064024030B589B00023039304930593B5
:101F7000069307930268274B9A4201D009B030BDFF
:101F800004460025019503F5E2331A6C42F0005235
:101F90001A641A6C02F000520192019A02951A6BAF
:101FA00042F001021A631B6B03F001030293029BD0
:101FB000102303930323049303A9174800F02CFF75
:101FC0001648174B03604FF0606343604023836003
:101FD000C5604FF4806303614FF4006343614FF4C5
:101FE00000538361C5614FF440330362456201F0E1
:101FF00079F858B9094BA3609C630022114636203A
:1020000001F00CFA362001F03DFAB7E7FFF710FCBB
:10201000F0E700BF0074004000000240E815002017
:102020008860024010B582B00368254A934204D00C
:10203000B3F1804F2ED002B010BD00240094214B8C
:102040005A6C42F001025A645B6C03F00103009386
:10205000009B22462146182001F0E0F9182001F0EB
:1020600011FA22462146192001F0D8F9192001F071
:1020700009FA224621461A2001F0D0F91A2001F06F
:1020800001FA224621461B2001F0C8F91B2001F06D
:10209000F9F9D0E70021019103F50E331A6C42F0F3
:1020A00001021A641B6C03F001030193019B0A46B1
:1020B0001C2001F0B3F91C2001F0E4F9BBE700BFDC
:1020C000000001400038024000B589B000230393AE
:1020D00004930593069307930268154B9A4202D026
:1020E00009B05DF804FB0021019103F5F8331A6C87
:1020F00042F480221A641A6C02F480220192019A3E
:1021000002911A6B42F008021A631B6B03F008037A
:102110000293029B4FF4407303930223049303231F
:1021200006930723079303A9024800F075FED7E73B
:1021300000480040000C02404A4B5A6822F44032EA
:102140005A605A6841680A435A600268536823F427
:102150008073536002685368016943EA0123536046
:102160000268536823F040735360026853688168C3
:102170000B4353600268936823F400639360026822
:102180009368C1680B439360826A374B9A424BD085
:102190000268936823F07063936002689368816AB1
:1021A0000B4393600268936823F040539360026886
:1021B0009368C16A0B4393600268936823F002033B
:1021C000936002689368017E43EA4103936090F84C
:1021D0002030002B33D10268536823F4006353602E
:1021E0000268D36A23F47003D3620168CB6AC269C0
:1021F000013A43EA0253CB620268936823F4007306
:1022000093600268936890F8301043EA412393602A
:102210000268936823F4806393600268936841695D
:1022200043EA8123936070470268936823F07063E8
:1022300093600268936823F040539360BCE70268A0
:10224000536843F4006353600268536823F46043A7
:10225000536001684B68426A013A43EA42334B607B
:10226000BEE700BF002301400100000F38B310B5E6
:102270000446036C43B1236C13F0100F0BD0012004
:10228000002384F83C3010BDFFF70EFE002363648A
:1022900084F83C30EFE7236C23F4885323F00203E7
:1022A00043F0020323642046FFF746FF00206064EA
:1022B000236C23F0030343F001032364E0E70120D0
:1022C0007047000030B583B00023019390F83C3094
:1022D000012B00F09580012380F83C3003689C6856
:1022E00014F0010F13D19C6844F001049C60474B2B
:1022F0001C68474BA3FB0434A40C04EB4404019476
:1023000002E0019C013C0194019C002CF9D104687D
:10231000A36813F4807F03D0A36823F48073A360C1
:1023200003689C6814F0010F5FD0046C24F4E0642F
:1023300024F0010444F4807404645B6813F4806F37
:1023400005D0036C23F4405343F480530364036CBF
:1023500013F4805F36D0436C23F0060343641346C6
:102360000446002280F83C20826B2A48D063A26B8E
:1023700029481064A26B2948D06422686FF02200BB
:1023800010602568686840F0806068602568A8680B
:1023900040F48070A86020680A4600F14C01A06BF0
:1023A00000F006FF1E4B5B6813F01F0F0DD1236872
:1023B0009A6812F0405F25D19A6842F080429A6094
:1023C00000201BE000234364C9E72368154A9342B9
:1023D00001D0002012E09A6812F0405F14D19A6890
:1023E00042F080429A60002008E0036C43F0100342
:1023F0000364436C43F001034364002003B030BD29
:102400000220FBE70020F9E70020F7E76C0000203E
:1024100083DE1B439D2500082B2400088725000828
:102420000023014000200140704708B5806BFFF792
:10243000FBFF08BD7047704738B504460268116855
:10244000536811F0020F2FD003F0200363B3036C25
:1024500013F0100F03D1036C43F40073036493680B
:1024600013F0405F19D1237EBBB9D36A13F4700F08
:1024700003D0936813F4806F0FD1536823F02003C7
:102480005360236C23F480732364236C13F4805F04
:1024900003D1236C43F0010323642046FFF7BEF908
:1024A00023686FF012021A60236819685A6802F0F4
:1024B000800211F0040F36D0002A34D0226C12F0C2
:1024C000100F03D1226C42F4005222649A6812F475
:1024D000401F21D19A6B12F4401F03D09A6812F466
:1024E000806F19D15A6812F4806F15D19A6812F072
:1024F000405F11D1227E7AB95A6822F080025A6078
:10250000236C23F480532364236C13F4807F03D162
:10251000236C43F001032364204600F04BF9236849
:102520006FF00C021A6022681168536803F04003D0
:1025300011F0010F04D01BB1136813F0010F09D182
:1025400022681168536803F0806311F0200F00D0F7
:1025500063B938BD236C43F4803323642046FFF70E
:1025600069FF23686FF001021A60E9E7636C43F0CA
:10257000020363646FF0200515602046FFF75BFFE0
:1025800023681D60E5E708B5806B40230364436C56
:1025900043F004034364FFF74EFF08BD08B5836BA7
:1025A0001A6C12F0500F26D11A6C42F400721A64A1
:1025B0001A68916811F0405F19D1197EB9B9D16AD2
:1025C00011F4700F03D0916811F4806F0FD151682E
:1025D00021F0200151601A6C22F480721A641A6C86
:1025E00012F4805F03D11A6C42F001021A6418469B
:1025F000FFF714F908BD1A6C12F0100F03D19B6B92
:10260000DB6C9847F6E71846FFF715FFF2E7000086
:1026100030B482B00023019390F83C30012B00F0DD
:10262000BD80012380F83C300B68092B3ED905683A
:10263000EA689BB203EB43031E3B072404FA03F34F
:1026400022EA0303EB600568EA688C680B8803EBF9
:1026500043031E3B04FA03F31343EB604B68062B62
:102660003AD805686A6B03EB8303053B1F2404FA21
:1026700003F322EA03036B6305686A6B4B6803EBA1
:102680008303053B0C8804FA03F313436B6302686E
:10269000434B9A4250D00268414B9A4259D0002392
:1026A00080F83C30184602B030BC704705682A6993
:1026B0009BB203EB4303072404FA03F322EA030368
:1026C0002B6105682A698C680B8803EB430304FAC5
:1026D00003F313432B61C1E70C2B16D805682A6B53
:1026E00003EB8303233B1F2404FA03F322EA0303CF
:1026F0002B6305682A6B4B6803EB8303233B0C8831
:1027000004FA03F313432B63C1E70568EA6A03EB9A
:102710008303413B1F2404FA03F322EA0303EB6221
:102720000568EA6A4B6803EB8303413B0C8804FAB3
:1027300003F31343EB62AAE70B68122BABD1194BDF
:102740005A6822F400025A605A6842F480025A60C1
:10275000A1E70B68144A934201D0112B9FD1114B72
:102760005A6822F480025A605A6842F400025A60A1
:102770000A680D4B9A4292D10C4B1B680C4AA2FB83
:1027800003239B0C03EB83035A00019202E0019B9D
:10279000013B0193019B002BF9D180E7022082E7E6
:1027A0000020014000230140120000106C000020B6
:1027B00083DE1B4370470000264B9B6803F00C032D
:1027C000042B44D0082B01D0234870472DE9F04B4F
:1027D000204B5A6802F03F025B6813F4800F13D05D
:1027E0001C4B5968C1F3881100231C48A1FB000150
:1027F000FEF7A2FD174B5B68C3F3014301335B0097
:10280000B0FBF3F0BDE8F08B124B5B68C3F38813A9
:102810001E4600275C010025E41A65EB0705A901A7
:1028200041EA9461A001001B61EB0501CB0043EA82
:102830005073C400A01943EB07018B0243EA905385
:102840008402204619460023FEF776FDD2E70348AE
:10285000704700BF003802400024F40040787D013A
:10286000002800F09E8070B50446504B1B6803F0B2
:1028700007038B4209D2CBB24C4A1370136803F0A2
:1028800007038B4201D0012070BD236813F0020FB3
:1028900017D013F0040F04D0454A936843F4E05373
:1028A0009360236813F0080F04D0414A936843F4FF
:1028B000604393603E4A936823F0F003A0680343AB
:1028C00093600D46236813F0010F32D06368012B2B
:1028D00021D09A1E012A25D9354A126812F0020F1A
:1028E00061D033498A6822F0030213438B6000F001
:1028F00039FE06462E4B9B6803F00C036268B3EB6F
:10290000820F16D000F02EFE801B41F288339842D1
:10291000F0D90320B8E7264A126812F4003FE0D14C
:102920000120B1E7224A126812F0007FD9D10120BC
:10293000AAE71E4B1B6803F00703AB4209D9EAB2B2
:102940001A4B1A701B6803F00703AB4201D0012039
:102950009AE7236813F0040F06D0154A936823F40E
:10296000E053E1680B439360236813F0080F07D02E
:102970000F4A936823F46043216943EAC1039360DB
:10298000FFF71AFF0A4B9B68C3F30313094AD35C92
:10299000D840094B1860094B186800F097FD0020DB
:1029A00072E70120704701206EE700BF003C024043
:1029B00000380240284400086C0000207400002009
:1029C000014B1868704700BF6C00002008B5FFF786
:1029D000F7FF044B9B68C3F38223034AD35CD840C0
:1029E00008BD00BF003802403844000808B5FFF7B2
:1029F000E7FF044B9B68C3F34233034AD35CD840E0
:102A000008BD00BF0038024038440008002800F02C
:102A1000F48170B582B00446036813F0010F3BD017
:102A2000A74B9B6803F00C03042B2CD0A44B9B6892
:102A300003F00C03082B21D06368B3F5803F4FD01F
:102A4000B3F5A02F52D09E4B1A6822F480321A6040
:102A50001A6822F480221A606368002B50D000F0BC
:102A600081FD0546964B1B6813F4003F14D100F01E
:102A700079FD401B6428F5D90320C3E1904B5B68C6
:102A800013F4800FD8D08E4B1B6813F4003F03D093
:102A90006368002B00F0B381236813F0020F55D058
:102AA000874B9B6813F00C0F3ED0854B9B6803F05F
:102AB0000C03082B33D0E368002B68D0814B012234
:102AC0001A6000F04FFD05467D4B1B6813F0020FA6
:102AD00054D100F047FD401B0228F5D9032091E1B5
:102AE000774A136843F480331360B5E7744B1A6870
:102AF00042F480221A601A6842F480321A60ABE70E
:102B000000F030FD05466E4B1B6813F4003FC3D048
:102B100000F028FD401B6428F5D9032072E1684BC2
:102B20005B6813F4800FC6D1654B1B6813F0020F6E
:102B300004D0E368012B01D0012063E1604A1368EF
:102B400023F0F803216943EAC1031360236813F0FB
:102B5000080F40D0636963B35B4B01221A6000F039
:102B600001FD0546564B5B6F13F0020F33D100F0A9
:102B7000F9FC401B0228F5D9032043E1504A1368B1
:102B800023F0F803216943EAC1031360DEE74D4BEC
:102B900000221A6000F0E6FC0546494B1B6813F062
:102BA000020FD3D000F0DEFC401B0228F5D9032031
:102BB00028E1454B00221A6000F0D4FC0546404B4A
:102BC0005B6F13F0020F06D000F0CCFC401B022814
:102BD000F5D9032016E1236813F0040F79D0384BA0
:102BE0001B6C13F0805F33D100230193344B1A6CBC
:102BF00042F080521A641B6C03F080530193019BD6
:102C00000125324B1B6813F4807F23D0A368012B6E
:102C100034D0052B38D02A4B1A6F22F001021A67E4
:102C20001A6F22F004021A67A368002B36D000F056
:102C300099FC0646224B1B6F13F0020F48D100F09F
:102C400091FC801B41F288339842F3D90320D9E0EC
:102C50000025D6E71D4A136843F48073136000F023
:102C600081FC0646194B1B6813F4807FCED100F01F
:102C700079FC801B0228F5D90320C3E0104A136FAA
:102C800043F001031367CFE70D4B1A6F42F00402C4
:102C90001A671A6F42F001021A67C5E700F062FC7A
:102CA0000646074B1B6F13F0020F11D000F05AFCC1
:102CB000801B41F288339842F3D90320A2E000BF81
:102CC0000038024000004742800E4742007000403A
:102CD000EDB9A369002B00F094804D4A926802F090
:102CE0000C02082A54D0022B17D04A4B00221A603B
:102CF00000F038FC0446464B1B6813F0007F45D0BB
:102D000000F030FC001B0228F5D903207AE0404A8D
:102D1000136C23F080531364DBE73E4B00221A60F0
:102D200000F020FC05463A4B1B6813F0007F06D0EC
:102D300000F018FC401B0228F5D9032062E0E3698B
:102D4000226A1343626A43EA8213A26A5208013A72
:102D500043EA0243E26A43EA0263226B43EA0273F4
:102D60002B4A53602B4B01221A6000F0FBFB0446F8
:102D7000274B1B6813F0007F06D100F0F3FB001B0C
:102D80000228F5D903203DE000203BE0002039E097
:102D9000012B39D01E4B5B6803F48001E26991423C
:102DA00001D001202EE003F03F02216A8A4201D0C7
:102DB000012027E0616A47F6C0721A40B2EB811F1A
:102DC00001D001201EE003F44031A26A5208013A0A
:102DD000B1EB024F01D0012014E003F07062E16A10
:102DE000B2EB016F01D001200CE003F0E043226B55
:102DF000B3EB027F0AD0012004E0012070470120DC
:102E000000E0002002B070BD0120FBE70020F9E7E0
:102E1000003802406000474200230F2B00F2D680AA
:102E2000F0B482B05DE086685F000324BC4026EA0F
:102E30000406CC68BC4034438460466826EA020637
:102E40004C68C4F300129A403243426056E0DC08FA
:102E5000083450F8247003F0070296000F22B240A5
:102E600027EA02070A69B2403A4340F8242059E0B1
:102E7000062200E00022B2403A430234544E46F8A3
:102E80002420544A1468EA4302EA04064F6817F4FF
:102E9000803F01D045EA04064E4C2660646802EA91
:102EA00004064F6817F4003F01D045EA0406494C78
:102EB0006660A46802EA04064F6817F4801F01D018
:102EC00045EA0406434CA660E46822404E6816F4C6
:102ED000001F01D045EA04023E4CE26001330F2B93
:102EE00071D801229A400C6804EA0205AA42F5D181
:102EF0004C6804F00304013C012C94D94A6802F0A8
:102F00000302032A09D0C4685E000322B24024EA07
:102F100002048A68B2402243C2604A6802F0030297
:102F2000022A94D004685E000322B24024EA02041C
:102F30004A6802F00302B240224302604A6812F477
:102F4000403FCBD000220192234A546C44F4804489
:102F50005464526C02F480420192019A9C08A61CAF
:102F60001B4A52F8267003F0030296000F22B2406B
:102F700027EA0207194A90423FF47CAF02F58062CB
:102F8000904216D002F58062904214D002F5806221
:102F9000904212D002F58062904210D002F5806219
:102FA00090420ED002F5806290423FF461AF07225A
:102FB00061E701225FE702225DE703225BE704226B
:102FC00059E7052257E702B0F0BC7047704700BFD1
:102FD00000380140003C014000380240000002403F
:102FE00012B90904816170478161704730B4056886
:102FF0002C6824F480242C60046863608368402B70
:1030000005D0036899600368DA6030BC70470368D4
:103010009A600368D960F8E70268D3B2103B0B49A5
:10302000A1FB03131B090A49C95CC165032B06D820
:1030300022F47F7222F003028265806D704722F4D1
:103040007F7222F0030204328265F6E7ABAAAAAAD5
:1030500040440008836A826992B9012B0AD01BB1EF
:10306000022B01D000207047C36A13F0807F2CD15F
:1030700000207047C36AB3F1C07F28D0002070479A
:10308000B2F5005F05D0022B29D9032B15D0002003
:103090007047032B03D8DFE803F01C041C0A002050
:1030A0007047C36A13F0807F15D100207047C36A50
:1030B000B3F1C07F11D000207047C36A13F0807F46
:1030C00001D0012070470020704701207047012087
:1030D0007047012070470120704701207047012090
:1030E0007047000070B5044600F03CFA002C5BD03D
:1030F0000546022384F83530002384F834302268F2
:10310000136823F00103136023681A6812F0010F9B
:103110000AD000F027FA401B0528F5D92023636563
:10312000032084F8350070BD1A682048104061689B
:10313000A2680A43E1680A4321690A4361690A43B4
:10314000A1690A43E1690A43216A0A430243616AA9
:1031500004291ED01A602668756925F00705636A80
:103160001D43042B07D1A36A1D43E36A1BB120460C
:10317000FFF770FF90B975612046FFF74DFFE26DD4
:103180003F239340836000206065012384F835303D
:10319000C9E7E16A206B01430A43DBE7402363652B
:1031A000012084F83500BEE70120BCE73F8010E035
:1031B00038B5856D90F83440012C2CD0012480F86E
:1031C000344090F83540E4B2012C04D0002380F85C
:1031D0003430022038BD0446022084F83500002037
:1031E00060652046FFF702FFE26D3F239340AB602E
:1031F0002268136843F016031360236C23B122681E
:10320000136843F0080313602268136843F0010356
:1032100013600020DEE70220DCE70000F0B583B099
:10322000044600230193724B1D68724BA3FB0535C6
:10323000AD0A876D3E68C26D08239340334210D0BB
:1032400003681A6812F0040F0BD01A6822F0040207
:103250001A60C26D08239340BB60436D43F00103C5
:103260004365E26D01239340334209D022685269DD
:1032700012F0800F04D0BB60636D43F002036365FE
:10328000E26D04239340334209D02268126812F0A1
:10329000020F04D0BB60636D43F004036365E26D0D
:1032A00010239340334224D02268126812F0080F92
:1032B0001FD0BB6023681A6812F4802F0DD01B68E2
:1032C00013F4002F04D1236C9BB12046984710E0E3
:1032D000A36C73B1204698470BE01A6812F4807F04
:1032E00003D11A6822F008021A60236C0BB1204641
:1032F0009847E26D20239340334255D022681268EC
:1033000012F0100F50D0BB6094F83530DBB2052BB3
:103310000ED023681A6812F4802F33D01B6813F480
:10332000002F2AD1636C002B3ED0204698473BE00B
:103330002268136823F0160313602268536923F090
:1033400080035361236CA3B12268136823F0080340
:103350001360E26D3F239340BB60012384F8353056
:10336000002384F83430236D002B3FD0204698474B
:103370003CE0A36C002BE7D1EBE7E36BA3B1204665
:10338000984711E01A6812F4807F09D11A6822F078
:1033900010021A60012384F83530002384F8343099
:1033A000E36B0BB120469847636DFBB1636D13F07F
:1033B000010F17D0052384F835302268136823F0F5
:1033C00001031360019B01330193AB4204D82368CE
:1033D0001B6813F0010FF5D1012384F83530002369
:1033E00084F83430E36C0BB12046984703B0F0BD4D
:1033F0006C000020B5814E1B074AD36823F4E063BC
:103400001B041B0C000200F4E060184340F0BF6096
:1034100040F40030D060704700ED00E030B4174B4E
:10342000DB68C3F30223C3F10704042C28BF042480
:103430001D1D062D18D9033B4FF0FF3505FA04F486
:1034400021EA0401994005FA03F322EA0303194330
:1034500000280BDB0901C9B200F1604000F56140B2
:1034600080F8001330BC70470023E5E700F00F0040
:103470000901C9B2024B1954F4E700BF00ED00E0A6
:1034800014ED00E0002807DB00F01F0240090123D3
:103490009340024A42F82030704700BF00E100E04C
:1034A0000138B0F1807F0AD2064B5860064AF021FD
:1034B00082F823100020986007221A6070470120CC
:1034C000704700BF10E000E000ED00E010B50446DA
:1034D0000E4B18784FF47A73B3FBF0F30C4A106874
:1034E000B0FBF3F0FFF7DCFF68B90F2C01D9012026
:1034F0000AE0002221464FF0FF30FFF78FFF054B17
:103500001C60002000E0012010BD00BF7000002002
:103510006C0000207400002008B50B4B1A6842F4C0
:1035200000721A601A6842F480621A601A6842F4E3
:1035300080721A600320FFF75FFF0F20FFF7C6FFBE
:10354000FEF796FC002008BD003C0240034A1168CB
:10355000034B1B780B441360704700BF9417002087
:1035600070000020014B1868704700BF94170020BE
:1035700038B50446FFF7F6FF0546B4F1FF3F02D029
:10358000044B1B781C44FFF7EDFF401BA042FAD30D
:1035900038BD00BF7000002070B110B5044603793B
:1035A00033B102232371002020610123237110BD58
:1035B0004371FEF7D7FCF4E7012070474379012BF4
:1035C0002CD030B4012343710222027104682268B6
:1035D00001F01005AB401343236089B902681368FA
:1035E00003F03C033C2B06D00123037100234371FD
:1035F000184630BC7047536843F001035360F3E74B
:1036000001680A6802F470123C2303FA05F5AA4225
:10361000EAD14B6843F002034B60E5E702207047B4
:10362000F8B5069C4579012D6DD00125457102251F
:103630000571002934D18568344EEE638568344EB7
:103640002E648568334EEE640668356845F480550F
:103650003560042C1ED0082C1FD00CB10D4601E0A3
:103660000568083516460F460446002936D101681C
:103670000A6842F400520A602A4631468068FFF721
:1036800097FD00236371002833D0236943F00403BE
:103690002361F8BD05680C35E4E705681035E1E7FE
:1036A000C5681D4EEE63C5681C4E2E64C5681C4E71
:1036B000EE640668356845F080553560042C07D007
:1036C000082C08D00CB10025CCE705681435C9E7F3
:1036D00005681835C6E705681C35C3E701680A6840
:1036E00042F000520A602A463146C068FFF760FD8A
:1036F000C7E72468236807F01001012202FA01F1EC
:1037000019432160C5E70220C3E700BF273700083F
:1037100039370008453700082538000835380008D3
:103720003F380008704710B5846B2046FFF7FAFF5A
:103730000123237110BD704708B5806BFFF7FBFFB5
:1037400008BD704710B5846B236943F004032361FF
:103750002046FFF7F6FF0123237110BD704710B517
:10376000044603681A6812F4005F03D05A6B12F41F
:10377000005F09D123681A6812F0005F03D05A6B0A
:1037800012F0005F11D110BD04220271026942F0F3
:10379000010202614FF400525A630268136823F475
:1037A00080531360FFF7DAFFE4E7042222712269F5
:1037B00042F0020222614FF000525A6322681368FD
:1037C00023F080531360204600F02BF8DBE74379A9
:1037D000012B21D070B401254571022303710668C5
:1037E000336802F0100240F6FE74944023EA0404A9
:1037F0000B6849680B439340234333600468236894
:10380000C02101FA02F223EA0202226005710023BC
:103810004371184670BC704702207047704770476C
:103820007047704710B5846B2046FFF7F7FF012300
:10383000237110BD08B5806BFFF7F1FF08BD10B50F
:10384000846B236943F0040323612046FFF7E8FFFC
:103850000123237110BD10B4036A046A24F001042B
:103860000462846924F0F00444EA021223F00A039B
:103870000B43826103625DF8044B704710B4036A26
:1038800023F0100303628469036A24F4704444EA59
:10389000023223F0A00343EA0113826103625DF860
:1038A000044B7047836823F07003194341F007010C
:1038B0008160704790F83D30DBB2012B01D00120D0
:1038C0007047022380F83D300368184A934220D0A5
:1038D000B3F1804F1DD0A2F57C42934219D002F57E
:1038E0008062934215D002F58062934211D002F5B6
:1038F000784293420DD002F57052934209D0A2F55E
:103900009432934205D01A6842F001021A600020F6
:1039100070479A6802F00702062A05D01A6842F03A
:1039200001021A600020704700207047000001402B
:103930000368196A41F21112114208D1196A40F262
:103940004442114203D11A6822F001021A60012395
:1039500080F83D30002070477047704770477047CF
:103960007047704710B5044603681A6912F0020FD9
:1039700011D0DA6812F0020F0DD06FF002021A6156
:103980000123037703689B6913F0030F70D0FFF7DF
:10399000E6FF0023237723681A6912F0040F12D080
:1039A000DA6812F0040F0ED06FF004021A610223DD
:1039B000237723689B6913F4407F5FD02046FFF78D
:1039C000CEFF0023237723681A6912F0080F12D064
:1039D000DA6812F0080F0ED06FF008021A610423A3
:1039E00023772368DB6913F0030F4ED02046FFF7DF
:1039F000B6FF0023237723681A6912F0100F12D044
:103A0000DA6812F0100F0ED06FF010021A6108235E
:103A100023772368DB6913F4407F3DD02046FFF70E
:103A20009EFF0023237723681A6912F0010F03D049
:103A3000DA6812F0010F36D123681A6912F0800F8C
:103A400003D0DA6812F0800F34D123681A6912F0BB
:103A5000400F03D0DA6812F0400F32D123681A69A0
:103A600012F0200F03D0DA6812F0200F30D110BD11
:103A7000FFF774FF2046FFF773FF8AE72046FFF742
:103A80006DFF2046FFF76CFF9BE72046FFF766FFC0
:103A90002046FFF765FFACE72046FFF75FFF2046B3
:103AA000FFF75EFFBDE76FF001021A612046FFF7E6
:103AB00054FFC1E76FF080021A61204600F097F9C9
:103AC000C3E76FF040021A612046FFF74AFFC5E7DF
:103AD0006FF020021A61204600F088F9C7E7000065
:103AE0000368304A904212D0B0F1804F0FD0A2F557
:103AF0007C4290420BD002F58062904207D002F5E2
:103B00008062904203D002F57842904203D123F0C4
:103B100070034A681343234A90422AD0B0F1804F81
:103B200027D0A2F57C42904223D002F580629042D9
:103B30001FD002F5806290421BD002F5784290427D
:103B400017D002F57052904213D002F58062904275
:103B50000FD002F5806290420BD0A2F598329042CD
:103B600007D002F58062904203D002F58062904255
:103B700003D123F44073CA68134323F080034A69D6
:103B8000134303608B68C3620B688362054B9842E2
:103B900003D003F58063984201D10B6903630123CD
:103BA000436170470000014038B310B5044690F8F7
:103BB0003D30EBB1022384F83D30211D2068FFF732
:103BC0008FFF012384F8463084F83E3084F83F307C
:103BD00084F8403084F8413084F8423084F843302F
:103BE00084F8443084F8453084F83D30002010BD1E
:103BF00080F83C30FEF716FADCE70120704748B346
:103C000038B504460D4690F83D30F3B1022384F8F0
:103C10003D30211D2068FFF763FF2268136823F001
:103C200008031360226813682B431360012384F890
:103C3000463084F83E3084F83F3084F8423084F8CF
:103C4000433084F83D30002038BD80F83C30FFF729
:103C500083FEDBE70120704710B4846824F47F44BE
:103C600042EA03230B43234383605DF8044B704710
:103C700090F83C30012B73D010B50446012380F836
:103C80003C30022380F83D300268936823F47F4380
:103C900023F0770393600B68402B56D011D9702B1B
:103CA0003BD01FD8502B45D0602B19D1CA6849682A
:103CB0000068FFF7E3FD60212068FFF7F3FD0020B7
:103CC00024E0102B04D009D9202B01D0302B07D1B0
:103CD00019462068FFF7E6FD002017E0002BF7D01B
:103CE000012013E0B3F5805F0FD0B3F5005FF7D18B
:103CF000CB684A6889680068FFF7AEFF226893685E
:103D000043F480439360002000E00020012384F806
:103D10003D30002384F83C3010BDCB684A68896888
:103D20000068FFF799FF2268936843F07703936078
:103D30000020EBE7CA6849680068FFF78CFD502156
:103D40002068FFF7AFFD0020E0E7CA684968006817
:103D5000FFF781FD40212068FFF7A4FD0020D5E793
:103D60000220704790F83C30012B3BD030B4012347
:103D700080F83C30022380F83D3003685C689D6821
:103D800024F070040A6822435A600368164A93427A
:103D90001AD0B3F1804F17D0A2F57C42934213D0D2
:103DA00002F5806293420FD002F5806293420BD0FD
:103DB00002F57842934207D002F57052934203D045
:103DC000A2F59432934204D125F080054A68154348
:103DD0009D60012380F83D30002380F83C30184678
:103DE00030BC7047022070470000014070477047A8
:103DF0002DE9F04B04460268136923F44053C1686F
:103E00000B43136183680269134342691343C26918
:103E10001A430168CB6823F4164323F00C031343C1
:103E2000CB600268536923F4407381690B4353618B
:103E300003683E4A93420ED002F5806293420AD054
:103E400002F58062934206D002F58062934202D06E
:103E5000FEF7BCFD01E0FEF7C9FDE369B3F5004FD5
:103E600030D04FF00009061849EB090716EB000B9C
:103E700047EB090C4FEACC0343EA5B734FEACB02F2
:103E800093469C4663689A009B0F10EB0B0049EB2E
:103E90000C01FDF751FA264DA5FB003251096422B1
:103EA00002FB110213013233A5FB03235B0903F06C
:103EB000F00202EB011203F00F03216813448B6040
:103EC000BDE8F08B83464FF0000C06184CEB0C0756
:103ED00016EB000847EB0C094FEAC90343EA587395
:103EE0004FEAC8029046994662680021921841EB59
:103EF00001031BEB08004CEB0901FDF71DFA0C4D0B
:103F0000A5FB00325109642202FB1102D3003233B7
:103F1000A5FB03235B095A0002F4F87202EB0112BD
:103F200003F00703216813448B60C9E700100140C8
:103F30001F85EB512DE9F04104460F461646984681
:103F4000069D23681B6837EA03030CBF0123002387
:103F5000B3422BD1B5F1FF3FF3D02DB1FFF702FBF8
:103F6000A0EB0800A842ECD9226802F10C0353E848
:103F7000003F23F4D0730C3242E800310029F3D122
:103F8000226802F1140353E8003F23F001031432C6
:103F900042E800310029F3D1202384F83D3084F831
:103FA0003E30002384F83C30032000E00020BDE8D0
:103FB000F08158B310B5044690F83D300BB324237C
:103FC00084F83D302268D36823F40053D360204640
:103FD000FFF70EFF2268136923F4904313612268F0
:103FE000536923F02A0353612268D36843F40053D2
:103FF000D36000202064202384F83D3084F83E30D4
:1040000010BD80F83C30FEF75FF8D8E7012070471C
:104010002DE9F04182B01E4690F83D30DBB2202BF6
:1040200054D104460D469046002954D0002A54D05D
:1040300090F83C30012B52D0012380F83C30002313
:104040000364212380F83D30FFF78CFA0746A4F87B
:104050002480A4F82680A368B3F5805F05D04FF0D4
:104060000008002384F83C3011E0236913B14FF0BD
:104070000008F6E7A8460025F3E738F8023B226877
:10408000C3F308035360E38C013B9BB2E384E38CEE
:104090009BB273B100963B46002280212046FFF779
:1040A00049FFF0B9002DE8D015F8012B23685A60BC
:1040B000E9E700963B46002240212046FFF73AFF01
:1040C000034680B9202284F83D2000E002231846F0
:1040D00002B0BDE8F0810123F9E70123F7E70223ED
:1040E000F5E70323F3E70323F1E72DE9F04182B07D
:1040F0001E4690F83E30DBB2202B5BD104460D46C5
:10410000904600295AD0002A5AD090F83C30012B12
:1041100058D0012380F83C3000230364222280F829
:104120003E200363FFF71EFA0746A4F82C80A4F88C
:104130002E80A368B3F5805F05D04FF00008002300
:1041400084F83C3016E0236913B14FF00008F6E71D
:10415000A8460025F3E723685B68C3F3080328F843
:10416000023B03E023685B682B700135E38D013B64
:104170009BB2E385E38D9BB2BBB100963B46002228
:1041800020212046FFF7D6FEF0B9002DE3D0A3682A
:10419000B3F5805FE6D013B92369002BE2D0236822
:1041A0005B6803F07F032B70DFE7202384F83E3049
:1041B000002000E0022002B0BDE8F0810120FAE713
:1041C0000120F8E70220F6E70320F4E7F0B589B014
:1041D000044618B300230293174B1A6B42F00202F5
:1041E0001A631B6B03F002030293029B134B33F819
:1041F0001460039601230493002705970223069376
:104200000F4D03A955F82400FEF706FE3A46314645
:1042100055F82400FEF7E4FE09B0F0BD0023019339
:10422000054B1A6B42F002021A631B6B03F0020388
:104230000193019BDAE700BF0038024048440008C0
:104240007800002008B50122044B33F81010044B0D
:1042500053F82000FEF7C4FE08BD00BF4844000824
:104260007800002008B50022044B33F81010044BEE
:1042700053F82000FEF7B4FE08BD00BF4844000814
:1042800078000020DFF834D00D480E490E4A002394
:1042900002E0D458C4500433C4188C42F9D30B4AFA
:1042A0000B4C002301E013600432A242FBD3FDF764
:1042B000D5FDFBF7F1FFFDF75DFD70470000052020
:1042C00000000020840000206044000884000020DA
:1042D00098170020FEE70000F8B500BFF8BC08BC46
:1042E0009E467047F8B500BFF8BC08BC9E467047B4
:1042F00000202020202020202020282828282820B6
:1043000020202020202020202020202020202020AD
:104310002088101010101010101010101010101015
:104320001004040404040404040404101010101005
:1043300010104141414141410101010101010101CF
:104340000101010101010101010101011010101021
:1043500010104242424242420202020202020202A1
:1043600002020202020202020202020210101010F5
:10437000200000000000000000000000000000001D
:10438000000000000000000000000000000000002D
:10439000000000000000000000000000000000001D
:1043A000000000000000000000000000000000000D
:1043B00000000000000000000000000000000000FD
:1043C00000000000000000000000000000000000ED
:1043D00000000000000000000000000000000000DD
:1043E00000000000000000000000000000000000CD
:1043F0000000000073746570302E3500733E0A00B3
:1044000073746570000000007374617274000000C2
:104410006C6F6164620000006261636B0000000009
:104420006176676E000000000000000000000000E0
:10443000010203040607080900000000010203044A
:104440000006101600061016010080000040000053
:0844500018CFFF7F01000000FE
:0444580069020008ED
:04445C004102000811
:104460000400002000000000000000000000000028
:10447000000000000000000000000000000000003C
:10448000000000000000000000000000000000002C
:10449000000000000000000000000000000000001C
:1044A000000000000000000000000000000000000C
:1044B00000000000000000000000000000000000FC
:1044C000000000000100D007F40101000024F40006
:1044D000010000001000000000040240000402403F
:0444E0000004024092
:040000050800428528
:00000001FF
